:03000000022EFBD2
:0C2EFB00787FE4F6D8FD758107022EA850
:102EA8001221A774FFFFFE122B1A122F1D122E8E4D
:052EB800121DAD80F8C1
:042DB0007F077E001B
:042DB400AD07AC06B5
:102DB800ECFFAE05D2A5C2A7D2B2C2A68F90AF06CD
:082DC8008F80C2A5D2A5D2A79D
:012DD00022E0
:092D3F007E00122DB47401FFFEA8
:042D4800AD07AC0621
:102D4C00ECFFAE05D2A5C2A7D2B2D2A68F90AF0629
:082D5C008F80C2A5D2A5D2A709
:012D6400224C
:1021A700D2B37FF47E01EF1F70011EEF4E70F7C2AE
:1021B700B37E017FF4EF1F70011EEF4E70F7D2B3AD
:1021C7007E137F88EF1F70011EEF4E70F7C2A77F47
:1021D700147E00122DB47F307E00122D487E017FC1
:1021E700F4EF1F70011EEF4E70F77F0F7E00122D68
:1021F700B47F087E00122D487E017FF4EF1F700127
:102207001EEF4E70F77F117E00122DB47F317E02D4
:10221700122D487E017FF4EF1F70011EEF4E70F7FD
:102227007F127E00122DB47F097E00122D487E0199
:102237007FF4EF1F70011EEF4E70F77F137E0012C1
:102247002DB47F487E14122D487E017FF4EF1F7056
:10225700011EEF4E70F77F107E00122DB47F687E4F
:1022670052122D487E017FF4EF1F70011EEF4E7052
:10227700F77F127E00122DB47F197E00122D487E43
:10228700017FF4EF1F70011EEF4E70F77F107E0085
:10229700122DB47F607E52122D487E017FF4EF1F0E
:1022A70070011EEF4E70F77F137E00122DB47F482A
:1022B7007E2D122D487E017FF4EF1F70011EEF4E19
:1022C70070F77F307E00122DB4E4FFFE122D487E9A
:1022D700017FF4EF1F70011EEF4E70F77F317E0014
:1022E700122DB47F017E05122D487E017FF4EF1F6A
:1022F70070011EEF4E70F77F327E00122DB47F07FC
:102307007E02122D487E017FF4EF1F70011EEF4EF3
:1023170070F77F337E00122DB47F027E05122D48A1
:102327007E017FF4EF1F70011EEF4E70F77F347E42
:1023370000122DB47F077E00122D487E017FF4EF37
:102347001F70011EEF4E70F77F357E00122DB47F90
:10235700017E06122D487E017FF4EF1F70011EEFEC
:102367004E70F77F367E00122DB47407FFFE122DD4
:10237700487E017FF4EF1F70011EEF4E70F77F3725
:102387007E00122DB47F057E03122D487E017FF457
:10239700EF1F70011EEF4E70F77F387E00122DB4CD
:1023A7007F0E7E04122D487E017FF4EF1F70011E01
:1023B700EF4E70F77F397E00122DB47F0E7E041228
:1023C7002D487E017FF4EF1F70011EEF4E70F77FDF
:1023D7003A122D3F7E017FF4EF1F70011EEF4E7002
:1023E700F77F3B122D3F7E017FF4EF1F70011EEF39
:1023F7004E70F77F3C122D3F7E017FF4EF1F700177
:102407001EEF4E70F77F3D122D3F7E017FF4EF1FC9
:1024170070011EEF4E70F77F3E7E00122DB47F01D4
:102427007E00122D487F3F7E00122DB47F017E0073
:10243700122D487E017FF4EF1F70011EEF4E70F7DB
:102447007F017E00122DB47F1B7E01122D487E0175
:102457007FF4EF1F70011EEF4E70F77F027E0012B0
:102467002DB47F007E07122D487E017FF4EF1F7089
:10247700011EEF4E70F77F037E00122DB47F287E7A
:1024870010122D487E017FF4EF1F70011EEF4E7072
:10249700F77F087E00122DB47410FFFE122D487EC0
:1024A700017FF4EF1F70011EEF4E70F77F0A7E0069
:1024B700122DB47F207E44122D487E017FF4EF1F3A
:1024C70070011EEF4E70F77F0B7E00122DB47F3028
:1024D7007E50122D487E017FF4EF1F70011EEF4ED4
:1024E70070F7122DB07F057E00122D487E017FF414
:1024F700EF1F70011EEF4E70F7122DB07F257E0083
:10250700122D487E017FF4EF1F70011EEF4E70F70A
:10251700122DB07F277E00122D487E017FF4EF1F1A
:1025270070011EEF4E70F7122DB07F377E00122D0F
:10253700487E017FF4EF1F70011EEF4E70F77F4456
:102547007E00122DB47F007EAF122D487F457E009E
:10255700122DB47F007EDB122D487F207E00122DC6
:10256700B4E4FFFE122D487F217E00122DB4E4FF54
:0B257700FE122D487F227E00022DB4D2
:072A6B007850EEF208EFF2D3
:102A7200EBFE18E2FA08E2FBEA4E7858F2EB08F2B3
:102A82007857E24C785AF2ED08F2FEEA4EFEAA06B8
:102A92007F447E00122DB47858E2FE08E2FF122D28
:102AA200487F457E00122DB408E2FE08E2FF122D97
:102AB200487F217E00122DB4AE02AF03122D487F53
:062AC200227E00022DB48B
:072B1A007832EEF208EFF241
:102B21007856E4F20874DBF27BAF7A00E4FDFCFF37
:102B3100FE122A6BE47834F208F2E4FBFA7832E20E
:102B4100FE08E2FF122D480BBB00010AEB64DC4AD0
:102B510070EB7835E22401F218E23400F2D308E296
:082B610094AF18E2940040D289
:012B69002249
:10000300C6D50000000000E0380000783C00003C4A
:100013007800003C70C0001CE1E01FFFFFF0001CF3
:10002300E3000E1CE7C0079CE78003DCEF0003DC62
:10003300EE0001DCFC60009CF9F07FFFFFF800009C
:10004300000001C00E0001FFFF0001C00E0001C04F
:100053000E0001C00E0001FFFE0001C00E0001C032
:100063000E0001C00E0001FFFE0001C00E0001C022
:100073000E0000000000D6D00000000000070000C2
:1000830000078000000700000007000000070000D1
:10009300000701801FFFFFE01FFFFFE01E0701C0F5
:1000A3001E0701C01E0701C01E0701C01E0701C0B5
:1000B3001E0701C01FFFFFC01FFFFFC01E0701C0B7
:1000C3001C07018000070000000700000007000074
:1000D3000007000000070000000700000007000001
:1000E300000700000007000000000000BFC600007A
:1000F300000000000780003C07C001FC07803FE0D0
:10010300078039C1C78001C0E78001C0F78001C003
:10011300778001DE77807FFE078001C0078003C3FD
:10012300C78003E1E78003F8F78007FCE7F00FDE01
:1001330067F80FDC07F81FC0FF801DDFE78039CCAD
:10014300078071C0078061C0078001C0078001C0BC
:10015300078001E0078001E0078001C0070000007D
:100163000000BCBC000000000380300003C03C0062
:1001730003C03C0003C0380003C0380003C038602C
:1001830003F838F07FFFFFF003C0380003C03800E6
:1001930003C0380003DC39C003FFFFE007E383C07B
:1001A3003FC183C07FC1C3803BC1C78003C0EF0091
:1001B30003C0EF0003C07E0003C07C0003C07C00CB
:1001C30003C0FE003BC3EF803F8787F80FBF03F8F0
:1001D300077800E000000000CEC20000000000002D
:1001E30000001C3006000F3FFF00073807000738E8
:1001F300070000F8070000FFFF0060F8070079B868
:1002030007003DB807001DB807001BBFFF000338F8
:1002130007000330000007C0018007FFFFC006E7A7
:100223003B800EE73B807EE73B801EE73B801EE77B
:100233003B801CE73B801CE73B801CE73BE01FFF48
:10024300FFF80C0000000000000000000000B6C82A
:100253000000000000060000000780000003C0004B
:100263000C0381C00FFFFFF00E0000000E1E1E00E6
:100273000E1C1C000E1C1DC00FFFFFE00E1C1C00FB
:100283000E1C1C000E1C1C000E1FFC000E1C180074
:100293000E0004001CFFFF001C181E001C0C1C0099
:1002A3001C0638001C0770001803E0003803E00048
:1002B3003007F800701E3F8060F00FF0CF8000C061
:1002C30000000000CAAA000000000000000018306F
:1002D30001000E3FFFC00F3803800738038006F884
:1002E300038000FFFF8060F8038039B803803DB8C6
:1002F30003801FBFFF801F3803800333BC00070345
:10030300B80006C3B8E00E63B9F00E73B9C0FE3B84
:10031300BB801C3BBF001C3FBE001C1BBC001C035E
:10032300B8003C03B8003C03B8E01FFFFFF0000037
:1003330000000000000000000000D3D00000000017
:10034300000E0000000F8000001E00C0001E01E030
:100353007FFFFFF0003C0000003800000070000049
:1003630000F00C0000FFFF0001E00E0003E00E00B0
:1003730003E00E0007E00E000EFFFE0018E00E0083
:1003830070E00E0060E00E0000FFFE0000E00E00D3
:1003930000E00E0000E00E0000E00E0000E00E00A2
:1003A30000E0FE0000E03C0000C018000000000078
:1003B300C8CB0000000000000000000E0000000F8A
:1003C3008000000F0000000F0000000F0000000F6E
:1003D3000000000F0000001F0000001F8000001F2E
:1003E3008000001D8000001DC000001DC000003CF7
:1003F300C0000038E000003870000070700000F0AA
:10040300380000E03C0001C01E0003800F0007001D
:100413000FC00E0007F8380001C070000000000094
:10042300000000000000CEDE00000000000000001D
:10043300000003801FFFFFC0000F0000000F00003B
:10044300000F0000000F0000000E0000000E00006F
:10045300000E0080000E01C07FFFFFF0000FC00000
:10046300000FC000001FC000001DC000001DC00021
:10047300003DC0000039C0000079C0600071C06059
:1004830000E1C06001C1C0600381C0E00F01E1F081
:100493003C01FFE07000000000000000C4EA00001F
:1004A300000000C0000001F0000001E0000003C0F4
:1004B30000C003C001E007FFFFF00703C0000E0305
:1004C300C0001E03C0003C03C3007303C78063FF67
:1004D300FFC00383C0000383C0000383C000038302
:1004E300C0000383C0600383C0F07FFFFFF80003F5
:1004F300C0000003C0000003C0000003C0000003ED
:10050300C0000003C0000003C0000003C0000000DF
:100513000000D4C2000000000000000000E007005B
:1005230000FFFF8000F0078000F0070000F00700E5
:1005330000F0070000F0070000FFFF0000FFFF00CE
:1005430000F0070000F0070000F0070000F00700CC
:1005530000E0070000FFFF0000E0070000E00700E5
:1005630000E0070001E0070001C0070001C0070029
:10057300038007000780F7000F007F001E001F00A5
:1005830038001C0000000000C8D500000000000077
:1005930000000300030003FFFF8003FFFF800380CD
:1005A3000700038007000380070003800700038020
:1005B300070003800700038007000380070003FF91
:1005C300FF00038007000380070003800700038008
:1005D30007000380070003800700038007000380F0
:1005E30007000380070003FFFF0003800700038069
:1005F3000700038007000300000000000000D0C7CD
:1006030000000000000000000380070003FFFF80DC
:1006130003800700038007000380070003FFFF0038
:10062300038007000380070003FFFF0003FFFF00B1
:10063300038707000387C00003C7810003C78380C4
:1006430007FFFFC0070780000F0780001E07860013
:100653001C078F003BFFFF807007800000078000AE
:10066300000780E0000781F07FFFFFF80000000033
:1006730000000000C6DA0000000006000000079E2C
:100683000000079E7FF0079E7FF0079FF8F03FFF73
:10069300F8F01F9E78F0079E78F0079E78F007FE2B
:1006A3007FF0079E78F0079E78F0079E70F007FEB4
:1006B30070F0079E70F0079E7FF0079FFFF03FFFEB
:1006C300F0F0119070F003DCF0F003DEE0F0078F40
:1006D300E0F00F0FE0F00E07C0F01C038FF0380FAF
:1006E30003E0201C01C00000000000000000000027
:1006F30000000000000000000000000000000000F7
:1007030000000000000000000000000000000000E6
:1007130000000000000000000000000000000000D6
:10072300000007000700070007000700020002009F
:1007330002000200020002000000000000000700A7
:100743000700070000000000000000000000066032
:1007530006600CC019801100220000000000000098
:100763000000000000000000000000000000000086
:100773000000000000000000000000000000000076
:100783000000000010401040104010407FE07FE068
:1007930010401040208020807FE07FE02080208078
:1007A3002080208000000000000000000000000006
:1007B300020002000F801AC032C032C032001A0099
:1007C3000E0007000380038002C032C032C032C073
:1007D30012800F0002000200000000000000000071
:1007E3000000000070C050808880890089008B0061
:1007F3008A005FC0754006200A200A201A201220B2
:10080300114021C0000000000000000000000000B3
:10081300000000001C00260026002600260025C03C
:100823003880308058804900CD00C700C600C3001F
:10083300652038C000000000000000000000300008
:1008430038000800080010006000000000000000ED
:100853000000000000000000000000000000000095
:100863000000000000000000000000000000002065
:100873000040008001800100030003000600060021
:100883000600060006000600060003000300010040
:1008930001800080004000200000000000004000B4
:1008A30020001000180008000C000C0006000600D1
:1008B300060006000600060006000C000C000800F7
:1008C300180010002000400000000000000000009D
:1008D30000000000000002000200020072703AE013
:1008E3000F800F803AE072700200020002000000E5
:1008F30000000000000000000000000000000000F5
:1009030000000000000000000200020002000200DC
:1009130002007FF002000200020002000200000059
:1009230000000000000000000000000000000000C4
:1009330000000000000000000000000000000000B4
:100943000000000000000000000000000000300074
:1009530038000800080010006000000000000000DC
:100963000000000000000000000000000000000084
:1009730000007FE000000000000000000000000015
:100983000000000000000000000000000000000064
:100993000000000000000000000000000000000054
:1009A300000000000000000000000000000038000C
:1009B30038003800000000000000000000000020A4
:1009C3000060004000C000800080010001000200C0
:1009D30002000600040004000800080010001000D4
:1009E3003000200060004000000000000000000014
:1009F300000000000F00198030C030C060606060EC
:100A030060606060606060606060606030C030C083
:100A130019800F000000000000000000000000002B
:100A230000000000020006003E000600060006006B
:100A33000600060006000600060006000600060083
:100A430006003FC00000000000000000000000009E
:100A5300000000001F00218040C060C060C000C0D3
:100A63000180018003000400080010402040404042
:100A73007FC07FC0000000000000000000000000F5
:100A8300000000001E0023006180618061800180FE
:100A930003000E000180008000C060C060C060C021
:100AA30021801F0000000000000000000000000083
:100AB3000000008001800380038005800980098095
:100AC30011802180218041807FE0018001800180AD
:100AD300018007E0000000000000000000000000AB
:100AE300000000003FC03FC0200020002000200085
:100AF3002F00318020C000C000C060C060C04180B2
:100B030021801F0000000000000000000000000022
:100B130000000000078018C030C0300020006000D3
:100B2300678068C0706060606060606020603040B3
:100B330018C00F00000000000000000000000000CB
:100B4300000000001FE03FE0304020802080008054
:100B53000100010002000200020006000600060078
:100B63000600060000000000000000000000000076
:100B7300000000001F8030C06060606060607040F3
:100B83003CC00F00338020C06060606060606060C4
:100B930030C00F80000000000000000000000000D3
:100BA300000000000F00308030C060406060606073
:100BB300606060E031601E60006000C000C0308093
:100BC30031801E0000000000000000000000000053
:100BD3000000000000000000000000000700070004
:100BE30007000000000000000000000000000700F4
:100BF30007000700000000000000000000000000E4
:100C030000000000000000000000000000000600DB
:100C130006000000000000000000000000000000CB
:100C230006000600020004000000000000000000AF
:100C330000000020004000800100020004000800C2
:100C430010002000100008000400020001000080D2
:100C53000040002000000000000000000000000031
:100C630000000000000000000000000000007FE022
:100C730000000000000000007FE000000000000012
:100C83000000000000000000000000000000000061
:100C93000000200010000800040002000100008092
:100CA3000040002000400080010002000400080012
:100CB3001000200000000000000000000000000001
:100CC30000000F8030C0406040606060606000C022
:100CD30001800600040004000400000000000E0070
:100CE3000E000E00000000000000000000000000E5
:100CF3000000000007801C601020335026D0649051
:100D0300649068906890699069A066C03010302044
:100D130018400780000000000000000000000000F1
:100D230000000000060006000E000B000B0013007D
:100D33001180118011801F8020C020C020C020603E
:100D43006060F0F000000000000000000000000000
:100D530000000000FF00618060C060C060C060C030
:100D630061807F0060C06040606060606060606060
:100D730060C0FF80000000000000000000000000D1
:100D83000000000007E018603020302020006000E1
:100D93006000600060006000600060203020304030
:100DA30018800F0000000000000000000000000099
:100DB30000000000FE00618060C060C06060606091
:100DC30060606060606060606060606060C060C060
:100DD3006380FE000000000000000000000000002F
:100DE30000000000FFC06040602060006000610000
:100DF30061007F006100610060006000602060208E
:100E03006040FFC000000000000000000000000080
:100E130000000000FFC060C060206020600061002F
:100E230061007F006100610060006000600060009D
:100E33006000F0000000000000000000000000005F
:100E4300000000000F4018C0304030402000600018
:100E530060006000600063F060C060C030C030C0FC
:100E630018C00F0000000000000000000000000098
:100E730000000000F0F060606060606060606060CF
:100E830060607FE0606060606060606060606060C0
:100E93006060F0F0000000000000000000000000AF
:100EA300000000003FC00600060006000600060022
:100EB30006000600060006000600060006000600FF
:100EC30006003FC00000000000000000000000001A
:100ED300000000000FF0018001800180018001808B
:100EE30001800180018001800180018001800180F7
:100EF30001800180618063003E000000000000006B
:100F030000000000F3E060806100620062006400A2
:100F13006C007C007600670063006380618060C0C2
:100F230060E0F1F00000000000000000000000009D
:100F330000000000F00060006000600060006000DE
:100F4300600060006000600060006000602060205E
:100F53006040FFC00000000000000000000000002F
:100F630000000000F0F070E070E070E0596059603C
:100F7300596059605A604E604E604E604E604460E6
:100F83004460E4F0000000000000000000000000E6
:100F930000000000E07070207020582058204C2082
:100FA300462046204320432041A040E040E04060EB
:100FB3004060E0200000000000000000000000008E
:100FC300000000000F00198030C030406060606096
:100FD300606060606060606060606060304030C02E
:100FE30019800F0000000000000000000000000056
:100FF30000000000FF8060C060606060606060604F
:10100300606060C07F80600060006000600060001E
:101013006000F0000000000000000000000000007D
:10102300000000000F00198030C030406060606035
:10103300606060606060606060606E60324031C0BC
:1010430011800F8001E000C00000000000000000DC
:1010530000000000FF8060C06060606060606060EE
:1010630060C07F006600630063006180618060C0D0
:1010730060C0F070000000000000000000000000ED
:10108300000000001F2030E060206020600070003E
:101093003C000F0003C000C000604060406060601F
:1010A30070C04F800000000000000000000000003E
:1010B300000000007FE04620861086100600060030
:1010C30006000600060006000600060006000600ED
:1010D30006000F00000000000000000000000000F8
:1010E30000000000F070602060206020602060201D
:1010F30060206020602060206020602060206020ED
:1011030030401F80000000000000000000000000CD
:1011130000000000F8F07060304030403040308014
:1011230018801880188018800D000D000D000F0026
:1011330006000600000000000000000000000000A0
:1011430000000000F7706620662066406640674036
:10115300374037403B803B803B803B8039801100E8
:10116300110011000000000000000000000000005A
:101173000000000079E030C01880188019000D00CD
:101183000E000600060007000B000B80198011807B
:1011930030C079E000000000000000000000000003
:1011A30000000000F8F07060304030801880188034
:1011B3000D000D000E0006000600060006000600E6
:1011C30006001F8000000000000000000000000077
:1011D300000000003FE020C041C001800380030005
:1011E3000300060006000C000C001800182038202D
:1011F30030407FC00000000000000000000007E056
:1012030004000400040004000400040004000400BB
:1012130004000400040004000400040004000400AB
:1012230004000400040007E00000000000000000C8
:101233000000200010001000100008000800040047
:10124300040004000200020001000100010000800C
:1012530000800040004000400020000000003F00EC
:101263000100010001000100010001000100010073
:101273000100010001000100010001000100010063
:101283000100010001003F00000000000000070012
:101293000D8010400000000000000000000000006E
:1012A300000000000000000000000000000000003B
:1012B300000000000000000000000000000000002B
:1012C300000000000000000000000000000000001B
:1012D300000000000000000000000000000000000B
:1012E3000000000000000000FFF0000000003000DC
:1012F3003800080008001000600000000000000033
:1013030000000000000000000000000000000000DA
:1013130000000000000000000000000000000000CA
:1013230000000000000000000000000000000F802B
:1013330030C030C007C01CC030C060C060C060C0D7
:1013430071D03EF00000000000000000000000002B
:101353000000100070003000300030003000338097
:101363003CC03860306030603060306030603040A6
:1013730038C02F80000000000000000000000000C3
:1013830000000000000000000000000000000F004B
:1013930031803180618060006000600060403040D7
:1013A30030800F000000000000000000000000007B
:1013B3000000004001C000C000C000C000C01EC04B
:1013C30031C030C060C060C060C060C060C020C0B9
:1013D30031E01E800000000000000000000000005B
:1013E3000000000000000000000000000000078073
:1013F30018C0106030603FE030003000300018202B
:101403001C400780000000000000000000000000F6
:101413000000000003C006600C600C000C007FC0DD
:101423000C000C000C000C000C000C000C000C0059
:101433000C003F80000000000000000000000000DE
:1014430000000000000000000000000000000F701A
:10145300199030C030C030C019801F0030003E00EA
:101463001FC06060606070E01F800000000000002B
:101473000000100070003000300030003000378072
:1014830038C030C030C030C030C030C030C030C0D1
:1014930030C079E000000000000000000000000000
:1014A30000000000060006000000000000003E00EF
:1014B30006000600060006000600060006000600F9
:1014C30006003FC000000000000000000000000014
:1014D30000000000018001800000000000000F8078
:1014E30001800180018001800180018001800180F1
:1014F30001800180018033003E00000000000000F5
:10150300000010007000300030003000300033C0A5
:1015130031003300320036003E003B00330031809F
:10152300318079E0000000000000000000000000AE
:10153300000002003E00060006000600060006004A
:101543000600060006000600060006000600060068
:1015530006003FC000000000000000000000000083
:101563000000000000000000000000000000EEE0AA
:101573007760666066606660666066606660666027
:101583006660F7700000000000000000000000002B
:101593000000000000000000000000000000738055
:1015A3003CC030C030C030C030C030C030C030C0AC
:1015B30030C079E0000000000000000000000000DF
:1015C30000000000000000000000000000000F0009
:1015D300198030C06060606060606060606030C0CF
:1015E30030C00F00000000000000000000000000F9
:1015F30000000000000000000000000000007780F1
:1016030038C030603060306030603060306030C08F
:1016130038C03780300030007C000000000000003C
:1016230000000000000000000000000000001E4059
:1016330031C030C060C060C060C060C060C020C046
:1016430031C01EC000C000C003E000000000000065
:101653000000000000000000000000000000F9E0AE
:101663001A601C0018001800180018001800180051
:101673001800FF0000000000000000000000000050
:1016830000000000000000000000000000000FE068
:101693001860302030001C000F8001C020602060E3
:1016A30030C03F8000000000000000000000000088
:1016B300000000000000040004000C000C007F8008
:1016C3000C000C000C000C000C000C000C000C4077
:1016D3000C40078000000000000000000000000034
:1016E300000000000000000000000000104071C076
:1016F30030C030C030C030C030C030C030C030C067
:1017030039E01E800000000000000000000000001F
:1017130000000000000000000000000000007CF05A
:101723003860184018400C800C800C8007000700BC
:10173300070002000000000000000000000000009D
:101743000000000000000000000000000000F7B0EF
:10175300632063206720372035C039C039C039C0C2
:101763001080108000000000000000000000000056
:1017730000000000000000000000000000007DE009
:10178300188019800D000E00060007000B00198059
:1017930011C07BE00000000000000000000000001A
:1017A30000000000000000000000000000007DE0D9
:1017B3003880188018800D000D000D00060006000B
:1017C30002000400040028003800000000000000AC
:1017D30000000000000000000000000000003FC007
:1017E300218023800300070006000E000C201C202C
:1017F30018603FC00000000000000000000000006F
:1018030000000000000000000000000000000000D5
:1018130000000000000000000000000000000000C5
:1018230000000000000000000000000000000000B5
:1018330000000000000000000000000000000000A5
:101843000000000000000000000000000000000095
:101853000000000000000000000000000000000085
:101863000000000000000000000000000000000075
:101873000000000000000000000000000000000065
:101883000000000000000000000000000000000055
:101893000000000000000000000000000000000045
:1018A3000000000000000000000000000000000035
:1018B3000000000000000000000000000000000025
:1018C3000000000000000000000000000000000015
:1018D3000000000000000000000000000000000005
:0A18E30000000000000000000000FB
:102BB4007800EEF208EFF208EAF208EBF28D828C6C
:012BC400838D
:102BC5007800E2FA08E2FBFFAE027856E583F208E8
:102BD500E582F2122A6BE47804F27802E2FE08E25A
:0F2BE500FF122D487804E204F2E2C3940940EB9A
:012BF40022BE
:1029D5007805EEF208EFF27809EAF208EBF27807EB
:0529E500ECF208EDF228
:1029EA007805E2FA08E2FB24FDFFEA34FFFEEB2455
:1029FA0003FBE43AFA08E2F58308E2F5827856E541
:102A0A0083F208E582F2122A6BE4780BF27809E283
:102A1A00FE08E2FF122D48780BE204F2E2C39407A3
:102A2A0040EB7805E2FA08E2FBFFAE027808E224FE
:102A3A00FDFD18E234FFFC08E224037957F318E29B
:102A4A00340019F3122A6BE4780BF27809E2FE08D3
:102A5A00E2FF122D48780BE204F2E2C3940740EB3E
:012A6A002249
:07258200780CEEF208EFF205
:10258900E47817F208F208F208F2AF03780CE2FADD
:1025990008E2FBC3EF9B781CF2E49A18F2C37812A5
:1025A900E29D791EF318E29C19F37827EAF208EB09
:1025B900F2AF057825ECF208EFF2781BE2FE08E2AB
:1025C900FFD39400EE6480948040097821E4F208F6
:1025D90004F2801EEF4E70077821F208F28013741E
:1025E900FF7821F208F2C3E49FFFE49E781BF2080A
:1025F900EFF2781DE2FE08E2FFD39400EE648094C6
:102609008040097823E4F20804F2801EEF4E700737
:102619007823F208F2801374FF7823F208F2C3E4F6
:102629009FFFE49E781DF208EFF2781DE2FE08E2B2
:10263900FF781BE2FC08E2FDD39FEE6480F8EC64AE
:102649008098781F4007ECF208EDF28005EEF20859
:10265900EFF2E47815F208F27820E22401FF18E29B
:102669003400FED37816E29F18E29E400302273316
:102679007827E2FE08E2FF7825E2FC08E2FD7813FC
:10268900E2FA08E2FB122BB4781BE2FE08E2FF78BB
:1026990018E22FF218E23EF2781DE2FE08E2FF7816
:1026A9001AE22FF218E23EF2781FE2FE08E2FF7802
:1026B90017E2FC08E2FDD39FEE6480F8EC64809891
:1026C9004020781FE2FE08E2FFED9F7818F2EC9EA9
:1026D90018F27821E2FE08E2FF7828E22FF218E2E8
:1026E9003EF2781FE2FE08E2FF7819E2FC08E2FDFB
:1026F900D39FEE6480F8EC6480984020781FE2FE56
:1027090008E2FFED9F781AF2EC9E18F27823E2FEB8
:1027190008E2FF7826E22FF218E23EF27816E22468
:0A27290001F218E23400F20226610A
:012733002283
:102734007840EEF208EFF208ECF208EDF208EBF262
:0627440008EAF208E9F2C8
:10274A007844E2FB08E2FA08E2F9121CA0700302DC
:10275A0028597840E2FE08E2FF08E2FC08E2FDEFB1
:10276A00241CFBE43EFAE2241F7957F318E23400F2
:10277A0019F3122A6BE4784DF2784DE2FFC39414F0
:10278A0040030228407844E2FB08E2FA08E2F91220
:10279A001CA0FE75F076EFA42403F582E5F0340060
:1027AA00F583E4936E6003022838900001121CB985
:1027BA00FF784DE275F076A42404F582E5F0340042
:1027CA00F583E4936F7067784BF2784BE2FFC3941A
:1027DA0074505B784DE275F076A42405F582E5F035
:1027EA003400F583E5822FF582E43583F583E4939B
:1027FA00FF08E4F208EFF2E4784CF2784FE230E7AF
:10280A0004784780027849E2FE08E2FF122D4878F0
:10281A004FE225E0794FF318E23319F3784CE204DA
:10282A00F2E2C3940840D4784BE204F2809C784DDB
:10283A00E204F20227837846E22402F218E2340024
:0F284A00F27843E22420F218E23400F202274A27
:01285900225C
:10285A007840EEF208EFF208ECF208EDF208EBF23B
:06286A0008EAF208E9F2A1
:102870007844E2FB08E2FA08E2F9121CA0700302B5
:10288000292A24E0784DF27840E2FE08E2FF08E2CF
:10289000FC08E2FDEF2417FBE43EFAE2240F79572F
:1028A000F318E2340019F3122A6BE4784CF2784CF6
:1028B000E2FFC39430505A08E275F030A424EDF5DD
:1028C00082E5F03406F583E5822FF582E43583F561
:1028D00083E493FF08E4F208EFF2E4784BF2784FD8
:1028E000E230E704784780027849E2FE08E2FF120E
:1028F0002D48784FE225E0794FF318E23319F37849
:102900004BE204F2E2C3940840D4784CE204F28033
:102910009D7846E22401F218E23400F27843E22482
:0A29200010F218E23400F2022870F1
:01292A00228A
:092F130030B6047F018002E4FFE6
:012F1C002292
:0D2EEE003443101001FEFDFBF7EFDFBF00C5
:102DF200E4FDFCC3ED9FEC9E5015E4FBFA0BBB0017
:0F2E0200010AEB640C4A70F50DBD00010C80E471
:012E1100229E
:102E1200E4FDFCC3ED9FEC9E5015E4FBFA0BBB00F6
:0F2E2200010AEB64784A70F50DBD00010C80E4E5
:012E3100227E
:092F1D00C2A0D2A1C2A2D29022EE
:0A2CEE00EBF208EAF208E9F2C2A1D5
:102CF800E4FEEF30E704D2B18002C2B1EF25E0FF75
:0F2D0800D2A230A4034401FFC2A20EEEB408E32E
:012D17002299
:102DD1007D017F21122DE17F22122DE17D0A7F24C9
:102DE100C2A1122CF8AC07AF05122CF8D2A1AF0486
:012DF10022BF
:0C2EE100C2A1122CF8E4FF122CF8D2A1C0
:012EED0022C2
:0F2BF500C2A07BFE7A00792A78447408F27F61CF
:022C0400784115
:102C0600122CEEAD07E4FC7844E2FFECC39F501BA8
:102C1600E4FF122CF87841E2FB08E2FA08E2F98CAC
:0F2C260082758300EF121CE60C80DCD2A1AF0593
:012C3500227C
:0F2C3600C2A07BFF7A2E79EE78477405F27F30CB
:022C45007844D1
:102C4700122CEEAD07E4FC7847E2FFECC39F501966
:102C57007844E2FB08E2FA08E2F98C8275830012F5
:0D2C67001CB9FF122CF80C80DED2A1AF05C5
:012C7400223D
:102AC8007840EBF208EAF208E9F2122C367BFF7A3A
:102AD8002E79EE78477405F27F2A122C457840E269
:102AE800FB08E2FA08E2F978477408F27FA0122C92
:102AF80045122DD1E4FD7F25122DE17D077F261299
:102B08002DE17D0E7F20122DE1D2A07F057E0002EF
:022B18002E127B
:102E32007F07122EE17800EFF230E608122BF578C8
:0F2E4200297401F27DFF7F27122DE17829E2FF2D
:012E5100225E
:102D65007F07122EE17800EFF220E504E230E4134C
:102D75007DFF7F27122DE1C2A17FE1122CF8D2A1A0
:062D85007F00227F012205
:102CB300122C367BFF7A2E79EE78477405F27F2A41
:102CC300122C45122DD17D087F31122DE1E4FD7FB9
:102CD30025122DE17D077F26122DE17D0F7F201226
:0B2CE3002DE1D2A07F057E00022E1222
:102D8B007F07122EE17800EFF230E616122BF57D5D
:102D9B00FF7F27122DE1C2A17FE2122CF8D2A17F77
:052DAB0001227F00225F
:0C2F0700122D8BEF60037F01227F00225F
:102E5200D3EF9400EE940040147D6E7C00ED1D7063
:0D2E6200011CED4C70F7EF1F70E61E80E3C1
:012E6F002240
:102D1800C2B77B46AF031BEF70FAD2B7E4FB30B7FC
:102D2800130BEBD3940540037F00227F017E001232
:062D38002E5280EA7F012B
:012D3E002272
:0C2B6A00122D187F017E00122E527FCC2D
:102B7600E4FBFAC2B77834E22401F218E23400F238
:102B8600EF1392B7E4F2087406F2783308E2FD24F4
:102B9600FFF218E2FC34FFF2ED4C70EED2B7EFC351
:0D2BA60013FF0BBB00010AEB64084A70C668
:012BB30022FF
:102C75007D087C00C2B70FBF0000D2B70FBF0000B0
:102C85000FBF0000A2B7E433C43333335480FBE9EC
:102C9500C3134BF97E007F04EF1FAA0670011E4A7D
:0D2CA50070F6ED1D70011CED4C70C9AF0103
:012CB20022FF
:082F2600122B6A7F44022B7696
:082F2E00122B6A7FBE022B7614
:102E8E00E4FFFE122F26122F2E122C757832EFF23F
:092E9E00122C75EFFEE2FDEDFFC0
:012EA7002208
:10292B00CEC2B6C8003A002D002B0073656E6469E9
:10293B006E672E2E2E002E0073656E646F76657299
:10294B0000D3D0C8CB00CEDEC8CB00CAAAB6C80015
:10295B007761726E696E670073616665696E670099
:10296B00000000000000300000000000000000002C
:10297B0031000000000000000000320000000000E9
:10298B0000000000330000000000000000003400D5
:10299B0000000000000000003500000000000000F7
:1029AB0000003600000000000000000037000000AF
:1029BB0000000000000038000000000000000000D4
:0A29CB0039000000000000000000C9
:071DAD007832EEF208EFF2BC
:101DB40078357464F2087C007DFE7BFF7A29796BA8
:101DC4007E007F06121C7A785C7C007D017BFF7AA2
:101DD4002979717E007F64121C7A7BFF7A29792B22
:101DE400784774F8F208E4F274FF08F208F27D14FC
:101DF4007C007F7D7E001227347BFF7A297930783E
:101E04004774F8F208E4F274FF08F208F27D507C9B
:101E1400007F7D7E0012285AC37832E26480948069
:101E24007BFF503B7A297932784774F8F208E4F260
:101E340074FF08F208F27D5A7C007F7D7E00122830
:101E44005A7833E224FFF218E234FFF2E2FE08E2A9
:101E5400F4FFEEF4FE18F208EFF2FDAC0680247AEB
:101E6400297934784774F8F208E4F274FF08F20828
:101E7400F27D5A7C007F7D7E0012285A7832E2FC83
:101E840008E2FDEC121AF0783C121D4CE4FFFE7DD2
:101E9400C87C40783CE2FB08E2F908E2FA08E2CBAD
:101EA400F81219E5E4FBFAF9783F1218F4121B2929
:101EB4007832EEF208EFF27832E2FA08E2FB7C279D
:101EC4007D10FFAE02121D087836EFF27C277D10DC
:101ED400AF03AE02121D087E037FE8CFCDCFCECC78
:101EE400CE121D087837EFF27832E2FA08E2FB7C72
:101EF400037DE8FFAE02121D087E007F64CFCDCFC4
:101F0400CECCCE121D087838EFF27C007D64AF038E
:101F1400AE02121D087E007F0ACFCDCFCECCCE12EA
:101F24001D087839EFF27832E2FE08E2FF7C007D8A
:101F34000A121D08783AEDF2E47834F27834E2FBC0
:101F440075F00FA42469FDE435F0FC74362BF8E237
:101F540075F00AA4245CF9740035F0FA7B01784723
:101F640074F8F208E4F274FF08F208F27F7D7E0050
:101F740012285A7BFF7A297936784774F8F208E4F4
:101F8400F274FF08F208F27D5F7C007F5F7E00122E
:101F9400285A7834E204F2E2C39403409F7BFF7A28
:101FA400297941784774F8F208E4F274FF08F208DA
:101FB400F27D967C007F7D7E0012285A783474036B
:101FC400F27834E2FB75F00FA42478FDE435F0FCDC
:101FD40074362BF8E275F00AA4245CF9740035F029
:101FE400FA7B01784774F8F208E4F274FF08F20807
:101FF400F27F7D7E0012285A7834E204F2E2C39420
:102004000540BE122F13783BEFF27BFE7A0079363F
:10201400122AC8122D65EF70FA7BFF7A297943786A
:102024004774F8F208E4F274FF08F208F27D5F7C6A
:10203400007F5F7E0012285A7DFF7F27122DE11258
:102044002F137BFFBF01067A29794C80047A297902
:1020540051784774F8F208E4F274FF08F208F27D4C
:10206400147C007F5F7E00122734122F1D122CB3C4
:102074007FE87E03122E527835E2FF14F2EF7003EC
:102084000221A6122D8BEF700302219F783574E88C
:10209400F2E418F27BFF7A29792B74FF7847F2086F
:1020A400F20874F8F208E4F27D14FC7F23FE122790
:1020B400347834E2FB75F00FA4245FFDE435F0FCC2
:1020C400742A2BF8E275F00AA4245CF9740035F044
:1020D400FA7B0174FF7847F208F20874F8F208E416
:1020E400F27F23FE12285A7834E204F2E2C3940207
:1020F40040A278347402F27BFF7A29795674FF780F
:1021040047F208F20874F8F208E4F27D14FC7F0543
:10211400FE1227347834E2FB75F00FA42441FDE469
:1021240035F0FC742A2BF8E275F00AA4245CF974E7
:102134000035F0FA7B0174FF7847F208F20874F86E
:10214400F208E4F27F05FE12285A7834E204F2E23F
:10215400C3940440A2782EE27BFFB401207A29794B
:102164005B74FF7847F208F20874F8F208E4F27D31
:1021740014FC7F46FE12285A122EBD801E7A29793D
:102184006374FF7847F208F20874F8F208E4F27D09
:1021940014FC7F46FE12285A122ECF7F0A7E0012AC
:0221A4002E52B9
:0121A6002216
:102E7000D3EF9400EE940040147DC8D3ED648094A9
:0D2E80008040031D80F5EF1F70E61E80E30B
:012E8D002222
:102EBD00D2A37F057E00122E70C2A37F057E000275
:022ECD002E7065
:102ECF00C2A37F057E00122E70D2A37F057E000263
:022EDF002E7053
:1018ED00021B95E86480F8E933E83360110460F079
:1018FD00ED33EC337009E8FCE9FDEAFEEBFF220461
:10190D0060DED3EB9FEA9EE99DE8C2E78CF0C2F75B
:10191D0095F0400CE8CCF8E9CDF9EACEFAEBCFFB27
:10192D00121B6085D0F05804700320D5B3E8047005
:10193D00075002B2D5021B9F92D5EC0460F7E4CCA0
:10194D00C0E0C398F8603B94186008400DD0E0FBF0
:10195D00021B77E4FBFAC9FC8028E830E406E4C9F1
:10196D00FBE4CAFCE830E305E4C9CACBFCE8540744
:10197D006010F8C3E913F9EA13FAEB13FBEC13FC4F
:10198D00D8F130F52FC3E49CFCEF9BFFEE9AFEEDF2
:10199D0099FDD0E0FBEF4E4D4C701222DB03021B84
:1019AD009CEC2CFCEF33FFEE33FEED33FDED30E719
:1019BD00EB021B77EF2BFFEE3AFEED39FDD0E0FB8E
:1019CD0050130BBB0003021B9FED13FDEE13FEEF37
:0819DD0013FFEC13FC021B7761
:1019E500EC4D6011E8497017ED33EC3304600DE4FC
:1019F500FCFFFEFD22E933E8330470F8021B951263
:101A05001B6058046009E4CC248150062850090263
:101A15001B9F284003021B9CC0E0EB4A7044B98021
:101A250006D0E0FB021B8BEF4E701CBD8008EBFF60
:101A3500EAFEE9FD80EBE98DF0A4FEE5F0021ACEA1
:101A4500E9CDF9EAFEEBFFEF89F0A4FCE5F0CE89DC
:101A5500F0A42EFFE435F0CD89F0A42DFEE435F099
:101A65008067EF4E7005BD80D780C3EF8BF0A4ACC7
:101A7500F0EE8BF0A42CFCE435F0F8EF8AF0A42C02
:101A8500E5F038FCE433CB8DF0A42CFCE5F03BF815
:101A9500EE8AF0A42CFCE5F038F8E433CF89F0A405
:101AA5002CFCE5F038CF3400CE89F0A42FFFE5F00B
:101AB5003EFEE433C98DF0A42EFEE5F039CD8AF063
:101AC500A42FFFE5F03EFEE43DFD33D0E0FB5007DB
:101AD5000BBB000F021B9FEC2CFCEF33FFEE33FE1C
:061AE500ED33FD021B774A
:101AEB0075F020800E75F010800575F0087D007E76
:101AFB00007F003392D530D503121D3EEC334010DE
:101B0B00EF33FFEE33FEED33FDEC33FCD5F0ED227E
:0E1B1B00E5F0247EA2D513CC92E7CDCEFF22BA
:101B2900EDD2E7CD33EC3392D524814006E4FFFEB4
:101B3900FDFC22FCE4CFCECDCC24E0501174FF8013
:101B4900EDC3CC13CCCD13CDCE13CECF13CF0470B0
:071B5900F030D5DE021D3E55
:101B6000E9D2E7C933E833F892D5EDD2E7CD33ECCB
:071B700033FC5002B2D52244
:101B7700EC30E7100FBF000C0EBE00080DBD0004CF
:101B87000BEB6014A2D5EB13FCED92E7FD2274FF7B
:101B9700FCFDFEFF22E480F8A2D574FF13FC7D80D4
:031BA700E480EFE8
:101BAA00E709F608DFFA8046E709F208DFFA803E1D
:101BBA0088828C83E709F0A3DFFA8032E309F6080A
:101BCA00DFFA8078E309F208DFFA807088828C8372
:101BDA00E309F0A3DFFA806489828A83E0A3F60826
:101BEA00DFFA805889828A83E0A3F208DFFA804C00
:101BFA0080D280FA80C680D4806980F280338010D7
:101C0A0080A680EA809A80A880DA80E280CA80333F
:101C1A0089828A83ECFAE493A3C8C582C8CCC583B7
:101C2A00CCF0A3C8C582C8CCC583CCDFE9DEE78087
:101C3A000D89828A83E493A3F608DFF9ECFAA9F006
:101C4A00EDFB2289828A83ECFAE0A3C8C582C8CC5C
:101C5A00C583CCF0A3C8C582C8CCC583CCDFEADE75
:101C6A00E880DB89828A83E493A3F208DFF980CCD7
:101C7A0088F0EF60010E4E60C388F0ED2402B404D0
:101C8A000050B9F582EB2402B4040050AF23234577
:061C9A008223901BFA7387
:101CA000BB010689828A83E0225002E722BBFE0242
:091CB000E32289828A83E4932275
:101CB900BB010CE58229F582E5833AF583E02250E0
:101CC90006E92582F8E622BBFE06E92582F8E2222A
:0D1CD900E58229F582E5833AF583E4932244
:101CE600F8BB010DE58229F582E5833AF583E8F034
:101CF600225006E92582C8F622BBFE05E92582C8E0
:021D0600F222C7
:101D0800C2D5EC30E709B2D5E4C39DFDE49CFCEEF6
:101D180030E715B2D5E4C39FFFE49EFE121D58C3F9
:101D2800E49DFDE49CFC8003121D5830D507C3E4F4
:061D38009FFFE49EFE2265
:0E1D3E00C3E49FFFE49EFEE49DFDE49CFC22B6
:0C1D4C00ECF208EDF208EEF208EFF222D3
:101D5800BC000BBE0029EF8DF084FFADF022E4CC6F
:101D6800F875F008EF2FFFEE33FEEC33FCEE9DEC38
:101D7800984005FCEE9DFE0FD5F0E9E4CEFD22ED7E
:101D8800F8F5F0EE8420D21CFEADF075F008EF2FC8
:101D9800FFED33FD4007985006D5F0F222C398FDB9
:051DA8000FD5F0EA2256
:00000001FF
